{
  "_format": "hh-sol-artifact-1",
  "contractName": "Wallet",
  "sourceName": "contracts/Wallet.sol",
  "abi": [
    {
      "inputs": [
        {
          "internalType": "address",
          "name": "owner2",
          "type": "address"
        },
        {
          "internalType": "address",
          "name": "owner3",
          "type": "address"
        },
        {
          "internalType": "uint256",
          "name": "verifications",
          "type": "uint256"
        }
      ],
      "stateMutability": "nonpayable",
      "type": "constructor"
    },
    {
      "anonymous": false,
      "inputs": [
        {
          "indexed": false,
          "internalType": "uint256",
          "name": "transferNumber",
          "type": "uint256"
        },
        {
          "indexed": false,
          "internalType": "uint256",
          "name": "NumberOfApprovals",
          "type": "uint256"
        },
        {
          "indexed": false,
          "internalType": "address",
          "name": "aprover",
          "type": "address"
        }
      ],
      "name": "ApprovalReceived",
      "type": "event"
    },
    {
      "anonymous": false,
      "inputs": [
        {
          "indexed": false,
          "internalType": "uint256",
          "name": "transferNumber",
          "type": "uint256"
        }
      ],
      "name": "TransferApproved",
      "type": "event"
    },
    {
      "anonymous": false,
      "inputs": [
        {
          "indexed": false,
          "internalType": "uint256",
          "name": "transferNumber",
          "type": "uint256"
        },
        {
          "indexed": false,
          "internalType": "uint256",
          "name": "amount",
          "type": "uint256"
        },
        {
          "indexed": false,
          "internalType": "address",
          "name": "initiator",
          "type": "address"
        },
        {
          "indexed": false,
          "internalType": "address",
          "name": "reciever",
          "type": "address"
        }
      ],
      "name": "TransferRequestCreated",
      "type": "event"
    },
    {
      "inputs": [
        {
          "internalType": "address",
          "name": "",
          "type": "address"
        },
        {
          "internalType": "uint256",
          "name": "",
          "type": "uint256"
        }
      ],
      "name": "approvals",
      "outputs": [
        {
          "internalType": "bool",
          "name": "",
          "type": "bool"
        }
      ],
      "stateMutability": "view",
      "type": "function"
    },
    {
      "inputs": [
        {
          "internalType": "uint256",
          "name": "transferNumber",
          "type": "uint256"
        }
      ],
      "name": "approve",
      "outputs": [],
      "stateMutability": "nonpayable",
      "type": "function"
    },
    {
      "inputs": [
        {
          "internalType": "address",
          "name": "",
          "type": "address"
        }
      ],
      "name": "balance",
      "outputs": [
        {
          "internalType": "uint256",
          "name": "",
          "type": "uint256"
        }
      ],
      "stateMutability": "view",
      "type": "function"
    },
    {
      "inputs": [
        {
          "internalType": "uint256",
          "name": "transferNumber",
          "type": "uint256"
        }
      ],
      "name": "compute",
      "outputs": [
        {
          "internalType": "uint256",
          "name": "",
          "type": "uint256"
        }
      ],
      "stateMutability": "view",
      "type": "function"
    },
    {
      "inputs": [
        {
          "internalType": "uint256",
          "name": "",
          "type": "uint256"
        }
      ],
      "name": "computing",
      "outputs": [
        {
          "internalType": "uint256",
          "name": "",
          "type": "uint256"
        }
      ],
      "stateMutability": "view",
      "type": "function"
    },
    {
      "inputs": [
        {
          "internalType": "address payable",
          "name": "to",
          "type": "address"
        },
        {
          "internalType": "uint256",
          "name": "amount",
          "type": "uint256"
        }
      ],
      "name": "createTransfer",
      "outputs": [],
      "stateMutability": "nonpayable",
      "type": "function"
    },
    {
      "inputs": [],
      "name": "deposit",
      "outputs": [],
      "stateMutability": "payable",
      "type": "function"
    },
    {
      "inputs": [
        {
          "internalType": "uint256",
          "name": "",
          "type": "uint256"
        }
      ],
      "name": "done",
      "outputs": [
        {
          "internalType": "uint256",
          "name": "",
          "type": "uint256"
        }
      ],
      "stateMutability": "view",
      "type": "function"
    },
    {
      "inputs": [],
      "name": "getBalance",
      "outputs": [
        {
          "internalType": "uint256",
          "name": "",
          "type": "uint256"
        }
      ],
      "stateMutability": "view",
      "type": "function"
    },
    {
      "inputs": [],
      "name": "getTransferRequests",
      "outputs": [
        {
          "components": [
            {
              "internalType": "uint256",
              "name": "idOfTransfer",
              "type": "uint256"
            },
            {
              "internalType": "address payable",
              "name": "to",
              "type": "address"
            },
            {
              "internalType": "uint256",
              "name": "amount",
              "type": "uint256"
            },
            {
              "internalType": "bool",
              "name": "approved",
              "type": "bool"
            }
          ],
          "internalType": "struct Wallet.Transfer[]",
          "name": "",
          "type": "tuple[]"
        }
      ],
      "stateMutability": "view",
      "type": "function"
    },
    {
      "inputs": [],
      "name": "limit",
      "outputs": [
        {
          "internalType": "uint256",
          "name": "",
          "type": "uint256"
        }
      ],
      "stateMutability": "view",
      "type": "function"
    },
    {
      "inputs": [],
      "name": "owner",
      "outputs": [
        {
          "internalType": "address",
          "name": "",
          "type": "address"
        }
      ],
      "stateMutability": "view",
      "type": "function"
    },
    {
      "inputs": [
        {
          "internalType": "uint256",
          "name": "",
          "type": "uint256"
        }
      ],
      "name": "owners",
      "outputs": [
        {
          "internalType": "address",
          "name": "",
          "type": "address"
        }
      ],
      "stateMutability": "view",
      "type": "function"
    },
    {
      "inputs": [
        {
          "internalType": "uint256",
          "name": "",
          "type": "uint256"
        }
      ],
      "name": "transferRequests",
      "outputs": [
        {
          "internalType": "uint256",
          "name": "idOfTransfer",
          "type": "uint256"
        },
        {
          "internalType": "address payable",
          "name": "to",
          "type": "address"
        },
        {
          "internalType": "uint256",
          "name": "amount",
          "type": "uint256"
        },
        {
          "internalType": "bool",
          "name": "approved",
          "type": "bool"
        }
      ],
      "stateMutability": "view",
      "type": "function"
    },
    {
      "inputs": [
        {
          "internalType": "address",
          "name": "",
          "type": "address"
        }
      ],
      "name": "verify",
      "outputs": [
        {
          "internalType": "bool",
          "name": "",
          "type": "bool"
        }
      ],
      "stateMutability": "view",
      "type": "function"
    }
  ],
  "bytecode": "0x60806040523480156200001157600080fd5b5060405162001725380380620017258339818101604052810190620000379190620001df565b33600360006101000a81548173ffffffffffffffffffffffffffffffffffffffff021916908373ffffffffffffffffffffffffffffffffffffffff1602179055506000339080600181540180825580915050600190039060005260206000200160009091909190916101000a81548173ffffffffffffffffffffffffffffffffffffffff021916908373ffffffffffffffffffffffffffffffffffffffff1602179055506000839080600181540180825580915050600190039060005260206000200160009091909190916101000a81548173ffffffffffffffffffffffffffffffffffffffff021916908373ffffffffffffffffffffffffffffffffffffffff1602179055506000829080600181540180825580915050600190039060005260206000200160009091909190916101000a81548173ffffffffffffffffffffffffffffffffffffffff021916908373ffffffffffffffffffffffffffffffffffffffff16021790555080600481905550505050620002b2565b600081519050620001c2816200027e565b92915050565b600081519050620001d98162000298565b92915050565b600080600060608486031215620001fb57620001fa62000279565b5b60006200020b86828701620001b1565b93505060206200021e86828701620001b1565b92505060406200023186828701620001c8565b9150509250925092565b600062000248826200024f565b9050919050565b600073ffffffffffffffffffffffffffffffffffffffff82169050919050565b6000819050919050565b600080fd5b62000289816200023b565b81146200029557600080fd5b50565b620002a3816200026f565b8114620002af57600080fd5b50565b61146380620002c26000396000f3fe6080604052600436106100e85760003560e01c80638da5cb5b1161008a578063b759f95411610059578063b759f95414610333578063d0e30db01461035c578063e3d670d714610366578063ffabc673146103a3576100e8565b80638da5cb5b14610275578063a04ef145146102a0578063a4d66daf146102cb578063b4e8e08d146102f6576100e8565b80633ac172dd116100c65780633ac172dd1461019557806358a743c7146101be5780635ed86d5c146101fb57806363a9c3d714610238576100e8565b8063025e7c27146100ed57806303486c401461012a57806312065fe01461016a575b600080fd5b3480156100f957600080fd5b50610114600480360381019061010f9190610e6a565b6103e0565b6040516101219190611020565b60405180910390f35b34801561013657600080fd5b50610151600480360381019061014c9190610e6a565b61041f565b60405161016194939291906110d3565b60405180910390f35b34801561017657600080fd5b5061017f61048c565b60405161018c91906110b8565b60405180910390f35b3480156101a157600080fd5b506101bc60048036038101906101b79190610dea565b610494565b005b3480156101ca57600080fd5b506101e560048036038101906101e09190610e6a565b61067d565b6040516101f291906110b8565b60405180910390f35b34801561020757600080fd5b50610222600480360381019061021d9190610e6a565b6106a1565b60405161022f91906110b8565b60405180910390f35b34801561024457600080fd5b5061025f600480360381019061025a9190610dbd565b61083b565b60405161026c919061105d565b60405180910390f35b34801561028157600080fd5b5061028a61085b565b6040516102979190611020565b60405180910390f35b3480156102ac57600080fd5b506102b5610881565b6040516102c2919061103b565b60405180910390f35b3480156102d757600080fd5b506102e0610965565b6040516102ed91906110b8565b60405180910390f35b34801561030257600080fd5b5061031d60048036038101906103189190610e6a565b61096b565b60405161032a91906110b8565b60405180910390f35b34801561033f57600080fd5b5061035a60048036038101906103559190610e6a565b610983565b005b610364610d35565b005b34801561037257600080fd5b5061038d60048036038101906103889190610dbd565b610d37565b60405161039a91906110b8565b60405180910390f35b3480156103af57600080fd5b506103ca60048036038101906103c59190610e2a565b610d4f565b6040516103d7919061105d565b60405180910390f35b600081815481106103f057600080fd5b906000526020600020016000915054906101000a900473ffffffffffffffffffffffffffffffffffffffff1681565b6001818154811061042f57600080fd5b90600052602060002090600402016000915090508060000154908060010160009054906101000a900473ffffffffffffffffffffffffffffffffffffffff16908060020154908060030160009054906101000a900460ff16905084565b600047905090565b6000805b600080549050811015610530573373ffffffffffffffffffffffffffffffffffffffff16600082815481106104d0576104cf61133c565b5b9060005260206000200160009054906101000a900473ffffffffffffffffffffffffffffffffffffffff1673ffffffffffffffffffffffffffffffffffffffff16141561051c57600191505b60018161052991906111de565b9050610498565b50600115158115151461054257600080fd5b8147101561054f57600080fd5b7f099c4ec4ecfc26f7c8b27aeee5443f92120fa2c4e91ba6020369ae71a4d44278600180549050833386604051610589949392919061114f565b60405180910390a16001604051806080016040528060018054905081526020018573ffffffffffffffffffffffffffffffffffffffff1681526020018481526020016000151581525090806001815401808255809150506001900390600052602060002090600402016000909190919091506000820151816000015560208201518160010160006101000a81548173ffffffffffffffffffffffffffffffffffffffff021916908373ffffffffffffffffffffffffffffffffffffffff1602179055506040820151816002015560608201518160030160006101000a81548160ff0219169083151502179055505050505050565b6002818154811061068d57600080fd5b906000526020600020016000915090505481565b6000806000905060005b600080549050811015610743573373ffffffffffffffffffffffffffffffffffffffff16600082815481106106e3576106e261133c565b5b9060005260206000200160009054906101000a900473ffffffffffffffffffffffffffffffffffffffff1673ffffffffffffffffffffffffffffffffffffffff16141561072f57600191505b60018161073c91906111de565b90506106ab565b50600115158115151461075557600080fd5b6000805b6000805490508110156108305760011515600760008084815481106107815761078061133c565b5b9060005260206000200160009054906101000a900473ffffffffffffffffffffffffffffffffffffffff1673ffffffffffffffffffffffffffffffffffffffff1673ffffffffffffffffffffffffffffffffffffffff168152602001908152602001600020600087815260200190815260200160002060009054906101000a900460ff161515141561081d5760018261081a91906111de565b91505b8080610828906112c4565b915050610759565b508092505050919050565b60056020528060005260406000206000915054906101000a900460ff1681565b600360009054906101000a900473ffffffffffffffffffffffffffffffffffffffff1681565b60606001805480602002602001604051908101604052809291908181526020016000905b8282101561095c5783829060005260206000209060040201604051806080016040529081600082015481526020016001820160009054906101000a900473ffffffffffffffffffffffffffffffffffffffff1673ffffffffffffffffffffffffffffffffffffffff1673ffffffffffffffffffffffffffffffffffffffff168152602001600282015481526020016003820160009054906101000a900460ff161515151581525050815260200190600101906108a5565b50505050905090565b60045481565b60086020528060005260406000206000915090505481565b6000805b600080549050811015610a1f573373ffffffffffffffffffffffffffffffffffffffff16600082815481106109bf576109be61133c565b5b9060005260206000200160009054906101000a900473ffffffffffffffffffffffffffffffffffffffff1673ffffffffffffffffffffffffffffffffffffffff161415610a0b57600191505b600181610a1891906111de565b9050610987565b506001151581151514610a3157600080fd5b60001515600760003373ffffffffffffffffffffffffffffffffffffffff1673ffffffffffffffffffffffffffffffffffffffff168152602001908152602001600020600084815260200190815260200160002060009054906101000a900460ff16151514610ad5576040517f08c379a0000000000000000000000000000000000000000000000000000000008152600401610acc90611098565b60405180910390fd5b6000151560018381548110610aed57610aec61133c565b5b906000526020600020906004020160030160009054906101000a900460ff16151514610b4e576040517f08c379a0000000000000000000000000000000000000000000000000000000008152600401610b4590611078565b60405180910390fd5b6001600760003373ffffffffffffffffffffffffffffffffffffffff1673ffffffffffffffffffffffffffffffffffffffff168152602001908152602001600020600084815260200190815260200160002060006101000a81548160ff0219169083151502179055507ffec9d12d15ee8c8b836a58347cb0d4980db38411bcd0b83662cee48fb20b6dee82610be2846106a1565b33604051610bf293929190611118565b60405180910390a1600454610c06836106a1565b10610d31576001808381548110610c2057610c1f61133c565b5b906000526020600020906004020160030160006101000a81548160ff02191690831515021790555060018281548110610c5c57610c5b61133c565b5b906000526020600020906004020160010160009054906101000a900473ffffffffffffffffffffffffffffffffffffffff1673ffffffffffffffffffffffffffffffffffffffff166108fc60018481548110610cbb57610cba61133c565b5b9060005260206000209060040201600201549081150290604051600060405180830381858888f19350505050158015610cf8573d6000803e3d6000fd5b507fd9bbf1d8bef570b7e92ef1ba025425fc15915ae01f3d3be144cdc8be05442eb582604051610d2891906110b8565b60405180910390a15b5050565b565b60066020528060005260406000206000915090505481565b60076020528160005260406000206020528060005260406000206000915091509054906101000a900460ff1681565b600081359050610d8d816113e8565b92915050565b600081359050610da2816113ff565b92915050565b600081359050610db781611416565b92915050565b600060208284031215610dd357610dd261136b565b5b6000610de184828501610d7e565b91505092915050565b60008060408385031215610e0157610e0061136b565b5b6000610e0f85828601610d93565b9250506020610e2085828601610da8565b9150509250929050565b60008060408385031215610e4157610e4061136b565b5b6000610e4f85828601610d7e565b9250506020610e6085828601610da8565b9150509250929050565b600060208284031215610e8057610e7f61136b565b5b6000610e8e84828501610da8565b91505092915050565b6000610ea38383610fad565b60808301905092915050565b610eb88161128e565b82525050565b610ec781611246565b82525050565b610ed681611246565b82525050565b610ee581611234565b82525050565b6000610ef6826111a4565b610f0081856111bc565b9350610f0b83611194565b8060005b83811015610f3c578151610f238882610e97565b9750610f2e836111af565b925050600181019050610f0f565b5085935050505092915050565b610f5281611258565b82525050565b610f6181611258565b82525050565b6000610f746019836111cd565b9150610f7f82611370565b602082019050919050565b6000610f976029836111cd565b9150610fa282611399565b604082019050919050565b608082016000820151610fc36000850182611002565b506020820151610fd66020850182610ebe565b506040820151610fe96040850182611002565b506060820151610ffc6060850182610f49565b50505050565b61100b81611284565b82525050565b61101a81611284565b82525050565b60006020820190506110356000830184610edc565b92915050565b600060208201905081810360008301526110558184610eeb565b905092915050565b60006020820190506110726000830184610f58565b92915050565b6000602082019050818103600083015261109181610f67565b9050919050565b600060208201905081810360008301526110b181610f8a565b9050919050565b60006020820190506110cd6000830184611011565b92915050565b60006080820190506110e86000830187611011565b6110f56020830186610ecd565b6111026040830185611011565b61110f6060830184610f58565b95945050505050565b600060608201905061112d6000830186611011565b61113a6020830185611011565b6111476040830184610edc565b949350505050565b60006080820190506111646000830187611011565b6111716020830186611011565b61117e6040830185610edc565b61118b6060830184610eaf565b95945050505050565b6000819050602082019050919050565b600081519050919050565b6000602082019050919050565b600082825260208201905092915050565b600082825260208201905092915050565b60006111e982611284565b91506111f483611284565b9250827fffffffffffffffffffffffffffffffffffffffffffffffffffffffffffffffff038211156112295761122861130d565b5b828201905092915050565b600061123f82611264565b9050919050565b600061125182611264565b9050919050565b60008115159050919050565b600073ffffffffffffffffffffffffffffffffffffffff82169050919050565b6000819050919050565b6000611299826112a0565b9050919050565b60006112ab826112b2565b9050919050565b60006112bd82611264565b9050919050565b60006112cf82611284565b91507fffffffffffffffffffffffffffffffffffffffffffffffffffffffffffffffff8214156113025761130161130d565b5b600182019050919050565b7f4e487b7100000000000000000000000000000000000000000000000000000000600052601160045260246000fd5b7f4e487b7100000000000000000000000000000000000000000000000000000000600052603260045260246000fd5b600080fd5b7f5472616e7366657220616c726561647920617070726f76656400000000000000600082015250565b7f5472616e7366657220616c726561647920617070726f7665642062792074686960008201527f7320616464726573730000000000000000000000000000000000000000000000602082015250565b6113f181611234565b81146113fc57600080fd5b50565b61140881611246565b811461141357600080fd5b50565b61141f81611284565b811461142a57600080fd5b5056fea2646970667358221220cd3686d9cd6a60b6aeae5b44a4a58fa2e574e79dbfb24ab6ea96855536b81d1c64736f6c63430008070033",
  "linkReferences": {},
  "deployedLinkReferences": {}
}